{
  "_format": "hh-sol-artifact-1",
  "contractName": "FacebookContract",
  "sourceName": "contracts/FacebookContract.sol",
  "abi": [
    {
      "inputs": [],
      "stateMutability": "nonpayable",
      "type": "constructor"
    },
    {
      "anonymous": false,
      "inputs": [
        {
          "indexed": false,
          "internalType": "uint256",
          "name": "postId",
          "type": "uint256"
        },
        {
          "indexed": false,
          "internalType": "string",
          "name": "commentContent",
          "type": "string"
        },
        {
          "indexed": true,
          "internalType": "address",
          "name": "commenter",
          "type": "address"
        },
        {
          "indexed": false,
          "internalType": "uint256",
          "name": "timestamp",
          "type": "uint256"
        }
      ],
      "name": "NewComment",
      "type": "event"
    },
    {
      "anonymous": false,
      "inputs": [
        {
          "indexed": false,
          "internalType": "uint256",
          "name": "postId",
          "type": "uint256"
        },
        {
          "indexed": true,
          "internalType": "address",
          "name": "user",
          "type": "address"
        }
      ],
      "name": "NewLike",
      "type": "event"
    },
    {
      "anonymous": false,
      "inputs": [
        {
          "indexed": false,
          "internalType": "string",
          "name": "content",
          "type": "string"
        },
        {
          "indexed": false,
          "internalType": "string",
          "name": "mediaUrl",
          "type": "string"
        },
        {
          "indexed": true,
          "internalType": "address",
          "name": "author",
          "type": "address"
        },
        {
          "indexed": false,
          "internalType": "uint256",
          "name": "timestamp",
          "type": "uint256"
        }
      ],
      "name": "NewPost",
      "type": "event"
    },
    {
      "anonymous": false,
      "inputs": [
        {
          "indexed": false,
          "internalType": "uint256",
          "name": "postId",
          "type": "uint256"
        },
        {
          "indexed": true,
          "internalType": "address",
          "name": "shareduser",
          "type": "address"
        },
        {
          "indexed": false,
          "internalType": "string",
          "name": "content",
          "type": "string"
        },
        {
          "indexed": false,
          "internalType": "string",
          "name": "mediaUrl",
          "type": "string"
        },
        {
          "indexed": false,
          "internalType": "uint256",
          "name": "timestamp",
          "type": "uint256"
        }
      ],
      "name": "NewShare",
      "type": "event"
    },
    {
      "anonymous": false,
      "inputs": [
        {
          "indexed": true,
          "internalType": "address",
          "name": "user",
          "type": "address"
        },
        {
          "indexed": false,
          "internalType": "string",
          "name": "profilePicture",
          "type": "string"
        }
      ],
      "name": "ProfilePictureUpdated",
      "type": "event"
    },
    {
      "anonymous": false,
      "inputs": [
        {
          "indexed": true,
          "internalType": "address",
          "name": "user",
          "type": "address"
        },
        {
          "indexed": false,
          "internalType": "uint256",
          "name": "amount",
          "type": "uint256"
        }
      ],
      "name": "RewardIssued",
      "type": "event"
    },
    {
      "anonymous": false,
      "inputs": [
        {
          "indexed": true,
          "internalType": "address",
          "name": "user",
          "type": "address"
        },
        {
          "indexed": false,
          "internalType": "uint256",
          "name": "reward",
          "type": "uint256"
        }
      ],
      "name": "SpinResult",
      "type": "event"
    },
    {
      "inputs": [
        {
          "internalType": "uint256",
          "name": "postId",
          "type": "uint256"
        },
        {
          "internalType": "string",
          "name": "commentContent",
          "type": "string"
        }
      ],
      "name": "commentOnPost",
      "outputs": [],
      "stateMutability": "nonpayable",
      "type": "function"
    },
    {
      "inputs": [],
      "name": "getAllPosts",
      "outputs": [
        {
          "components": [
            {
              "internalType": "string",
              "name": "content",
              "type": "string"
            },
            {
              "internalType": "string",
              "name": "mediaUrl",
              "type": "string"
            },
            {
              "internalType": "address",
              "name": "author",
              "type": "address"
            },
            {
              "internalType": "uint256",
              "name": "timestamp",
              "type": "uint256"
            },
            {
              "internalType": "uint256",
              "name": "likeCount",
              "type": "uint256"
            },
            {
              "internalType": "uint256",
              "name": "shareCount",
              "type": "uint256"
            }
          ],
          "internalType": "struct FacebookContract.Post[]",
          "name": "",
          "type": "tuple[]"
        }
      ],
      "stateMutability": "view",
      "type": "function"
    },
    {
      "inputs": [
        {
          "internalType": "uint256",
          "name": "postId",
          "type": "uint256"
        }
      ],
      "name": "getComments",
      "outputs": [
        {
          "components": [
            {
              "internalType": "string",
              "name": "commentContent",
              "type": "string"
            },
            {
              "internalType": "address",
              "name": "commenter",
              "type": "address"
            },
            {
              "internalType": "uint256",
              "name": "timestamp",
              "type": "uint256"
            }
          ],
          "internalType": "struct FacebookContract.Comment[]",
          "name": "",
          "type": "tuple[]"
        }
      ],
      "stateMutability": "view",
      "type": "function"
    },
    {
      "inputs": [
        {
          "internalType": "uint256",
          "name": "postId",
          "type": "uint256"
        }
      ],
      "name": "getLikes",
      "outputs": [
        {
          "internalType": "address[]",
          "name": "",
          "type": "address[]"
        }
      ],
      "stateMutability": "view",
      "type": "function"
    },
    {
      "inputs": [
        {
          "internalType": "address",
          "name": "user",
          "type": "address"
        }
      ],
      "name": "getProfilePicture",
      "outputs": [
        {
          "internalType": "string",
          "name": "",
          "type": "string"
        }
      ],
      "stateMutability": "view",
      "type": "function"
    },
    {
      "inputs": [
        {
          "internalType": "address",
          "name": "user",
          "type": "address"
        }
      ],
      "name": "getRewardBalance",
      "outputs": [
        {
          "internalType": "uint256",
          "name": "",
          "type": "uint256"
        }
      ],
      "stateMutability": "view",
      "type": "function"
    },
    {
      "inputs": [
        {
          "internalType": "uint256",
          "name": "postId",
          "type": "uint256"
        }
      ],
      "name": "likePost",
      "outputs": [],
      "stateMutability": "nonpayable",
      "type": "function"
    },
    {
      "inputs": [
        {
          "internalType": "string",
          "name": "content",
          "type": "string"
        },
        {
          "internalType": "string",
          "name": "mediaUrl",
          "type": "string"
        }
      ],
      "name": "post",
      "outputs": [],
      "stateMutability": "nonpayable",
      "type": "function"
    },
    {
      "inputs": [
        {
          "internalType": "uint256",
          "name": "",
          "type": "uint256"
        },
        {
          "internalType": "uint256",
          "name": "",
          "type": "uint256"
        }
      ],
      "name": "postComments",
      "outputs": [
        {
          "internalType": "string",
          "name": "commentContent",
          "type": "string"
        },
        {
          "internalType": "address",
          "name": "commenter",
          "type": "address"
        },
        {
          "internalType": "uint256",
          "name": "timestamp",
          "type": "uint256"
        }
      ],
      "stateMutability": "view",
      "type": "function"
    },
    {
      "inputs": [
        {
          "internalType": "uint256",
          "name": "",
          "type": "uint256"
        },
        {
          "internalType": "uint256",
          "name": "",
          "type": "uint256"
        }
      ],
      "name": "postLikes",
      "outputs": [
        {
          "internalType": "address",
          "name": "",
          "type": "address"
        }
      ],
      "stateMutability": "view",
      "type": "function"
    },
    {
      "inputs": [
        {
          "internalType": "uint256",
          "name": "",
          "type": "uint256"
        }
      ],
      "name": "posts",
      "outputs": [
        {
          "internalType": "string",
          "name": "content",
          "type": "string"
        },
        {
          "internalType": "string",
          "name": "mediaUrl",
          "type": "string"
        },
        {
          "internalType": "address",
          "name": "author",
          "type": "address"
        },
        {
          "internalType": "uint256",
          "name": "timestamp",
          "type": "uint256"
        },
        {
          "internalType": "uint256",
          "name": "likeCount",
          "type": "uint256"
        },
        {
          "internalType": "uint256",
          "name": "shareCount",
          "type": "uint256"
        }
      ],
      "stateMutability": "view",
      "type": "function"
    },
    {
      "inputs": [],
      "name": "rewardAmountPerPost",
      "outputs": [
        {
          "internalType": "uint256",
          "name": "",
          "type": "uint256"
        }
      ],
      "stateMutability": "view",
      "type": "function"
    },
    {
      "inputs": [],
      "name": "rewardToken",
      "outputs": [
        {
          "internalType": "contract RewardToken",
          "name": "",
          "type": "address"
        }
      ],
      "stateMutability": "view",
      "type": "function"
    },
    {
      "inputs": [
        {
          "internalType": "uint256",
          "name": "postId",
          "type": "uint256"
        },
        {
          "internalType": "string",
          "name": "newContent",
          "type": "string"
        },
        {
          "internalType": "string",
          "name": "newMediaUrl",
          "type": "string"
        }
      ],
      "name": "share",
      "outputs": [],
      "stateMutability": "nonpayable",
      "type": "function"
    },
    {
      "inputs": [],
      "name": "spinCost",
      "outputs": [
        {
          "internalType": "uint256",
          "name": "",
          "type": "uint256"
        }
      ],
      "stateMutability": "view",
      "type": "function"
    },
    {
      "inputs": [],
      "name": "spinWheel",
      "outputs": [],
      "stateMutability": "nonpayable",
      "type": "function"
    },
    {
      "inputs": [
        {
          "internalType": "string",
          "name": "profilePicture",
          "type": "string"
        }
      ],
      "name": "updateProfilePicture",
      "outputs": [],
      "stateMutability": "nonpayable",
      "type": "function"
    },
    {
      "inputs": [
        {
          "internalType": "address",
          "name": "",
          "type": "address"
        }
      ],
      "name": "userProfiles",
      "outputs": [
        {
          "internalType": "string",
          "name": "profilePicture",
          "type": "string"
        },
        {
          "internalType": "uint256",
          "name": "rewardBalance",
          "type": "uint256"
        }
      ],
      "stateMutability": "view",
      "type": "function"
    }
  ],
  "bytecode": "0x6080604052678ac7230489e80000600555671bc16d674ec8000060065534801561002857600080fd5b5073a24a520b0a0ef6a44b3bdebfc3026d1fc8f5d4ce600460006101000a81548173ffffffffffffffffffffffffffffffffffffffff021916908373ffffffffffffffffffffffffffffffffffffffff160217905550612b278061008d6000396000f3fe608060405234801561001057600080fd5b50600436106101165760003560e01c806362faabd4116100a2578063969a9b0511610071578063969a9b05146102f9578063a209081e14610317578063d5a849e914610347578063dc3479f414610377578063f7c618c11461039357610116565b806362faabd41461027357806364732154146102915780636f51d8cf146102ad578063725009d3146102dd57610116565b806323edf697116100e957806323edf697146101a657806330561100146101d6578063332d56d7146101f45780635193c94c14610225578063565a4dc31461025757610116565b80630ae1b13d1461011b5780630b1e7f83146101375780630f449d801461016c57806315ecef921461019c575b600080fd5b61013560048036038101906101309190611999565b6103b1565b005b610151600480360381019061014c9190611a47565b61064c565b60405161016396959493929190611b43565b60405180910390f35b61018660048036038101906101819190611bb2565b6107c8565b6040516101939190611bf2565b60405180910390f35b6101a4610816565b005b6101c060048036038101906101bb9190611a47565b610c11565b6040516101cd9190611d87565b60405180910390f35b6101de610d75565b6040516101eb9190611efb565b60405180910390f35b61020e60048036038101906102099190611f49565b610f6c565b60405161021c929190611f76565b60405180910390f35b61023f600480360381019061023a9190611bb2565b611018565b60405161024e93929190611fa6565b60405180910390f35b610271600480360381019061026c9190611fe4565b611107565b005b61027b6111a8565b604051610288919061202d565b60405180910390f35b6102ab60048036038101906102a69190612048565b6111ae565b005b6102c760048036038101906102c29190611f49565b611327565b6040516102d491906120a4565b60405180910390f35b6102f760048036038101906102f29190611a47565b6113fb565b005b610301611542565b60405161030e919061202d565b60405180910390f35b610331600480360381019061032c9190611a47565b611548565b60405161033e9190612175565b60405180910390f35b610361600480360381019061035c9190611f49565b6115e9565b60405161036e919061202d565b60405180910390f35b610391600480360381019061038c9190612197565b611635565b005b61039b611819565b6040516103a89190612281565b60405180910390f35b60006040518060c001604052808481526020018381526020013373ffffffffffffffffffffffffffffffffffffffff16815260200142815260200160008152602001600081525090506000819080600181540180825580915050600190039060005260206000209060060201600090919091909150600082015181600001908161043b919061249e565b506020820151816001019081610451919061249e565b5060408201518160020160006101000a81548173ffffffffffffffffffffffffffffffffffffffff021916908373ffffffffffffffffffffffffffffffffffffffff160217905550606082015181600301556080820151816004015560a082015181600501555050600460009054906101000a900473ffffffffffffffffffffffffffffffffffffffff1673ffffffffffffffffffffffffffffffffffffffff166340c10f19336005546040518363ffffffff1660e01b8152600401610518929190612570565b600060405180830381600087803b15801561053257600080fd5b505af1158015610546573d6000803e3d6000fd5b50505050600554600360003373ffffffffffffffffffffffffffffffffffffffff1673ffffffffffffffffffffffffffffffffffffffff168152602001908152602001600020600101600082825461059e91906125c8565b925050819055503373ffffffffffffffffffffffffffffffffffffffff167f08172eae0623ad5539d2f8b9570ce2d176c811e9c398afeda780c7a16c8ce3558484426040516105ef939291906125fc565b60405180910390a23373ffffffffffffffffffffffffffffffffffffffff167ff9b6ec770c96c3a6f9225bf3a8463a8ad03e884448af07b4ecd4d19d628946ee60055460405161063f919061202d565b60405180910390a2505050565b6000818154811061065c57600080fd5b906000526020600020906006020160009150905080600001805461067f906122cb565b80601f01602080910402602001604051908101604052809291908181526020018280546106ab906122cb565b80156106f85780601f106106cd576101008083540402835291602001916106f8565b820191906000526020600020905b8154815290600101906020018083116106db57829003601f168201915b50505050509080600101805461070d906122cb565b80601f0160208091040260200160405190810160405280929190818152602001828054610739906122cb565b80156107865780601f1061075b57610100808354040283529160200191610786565b820191906000526020600020905b81548152906001019060200180831161076957829003601f168201915b5050505050908060020160009054906101000a900473ffffffffffffffffffffffffffffffffffffffff16908060030154908060040154908060050154905086565b600160205281600052604060002081815481106107e457600080fd5b906000526020600020016000915091509054906101000a900473ffffffffffffffffffffffffffffffffffffffff1681565b600654600460009054906101000a900473ffffffffffffffffffffffffffffffffffffffff1673ffffffffffffffffffffffffffffffffffffffff166370a08231336040518263ffffffff1660e01b81526004016108749190611bf2565b602060405180830381865afa158015610891573d6000803e3d6000fd5b505050506040513d601f19601f820116820180604052508101906108b59190612656565b10156108f6576040517f08c379a00000000000000000000000000000000000000000000000000000000081526004016108ed906126f5565b60405180910390fd5b600654600460009054906101000a900473ffffffffffffffffffffffffffffffffffffffff1673ffffffffffffffffffffffffffffffffffffffff1663dd62ed3e33306040518363ffffffff1660e01b8152600401610956929190612715565b602060405180830381865afa158015610973573d6000803e3d6000fd5b505050506040513d601f19601f820116820180604052508101906109979190612656565b10156109d8576040517f08c379a00000000000000000000000000000000000000000000000000000000081526004016109cf9061278a565b60405180910390fd5b600460009054906101000a900473ffffffffffffffffffffffffffffffffffffffff1673ffffffffffffffffffffffffffffffffffffffff166323b872dd33306006546040518463ffffffff1660e01b8152600401610a39939291906127aa565b6020604051808303816000875af1158015610a58573d6000803e3d6000fd5b505050506040513d601f19601f82011682018060405250810190610a7c9190612819565b506000670de0b6b3a7640000600a60294233604051602001610a9f9291906128af565b6040516020818303038152906040528051906020012060001c610ac2919061290a565b610acc91906125c8565b610ad6919061293b565b9050600460009054906101000a900473ffffffffffffffffffffffffffffffffffffffff1673ffffffffffffffffffffffffffffffffffffffff166340c10f1933836040518363ffffffff1660e01b8152600401610b35929190612570565b600060405180830381600087803b158015610b4f57600080fd5b505af1158015610b63573d6000803e3d6000fd5b5050505080600360003373ffffffffffffffffffffffffffffffffffffffff1673ffffffffffffffffffffffffffffffffffffffff1681526020019081526020016000206001016000828254610bb991906125c8565b925050819055503373ffffffffffffffffffffffffffffffffffffffff167f0939c45901f118f415012386b9fe5801009f793d43aa9656d66f17e5e51a651a82604051610c06919061202d565b60405180910390a250565b606060026000838152602001908152602001600020805480602002602001604051908101604052809291908181526020016000905b82821015610d6a5783829060005260206000209060030201604051806060016040529081600082018054610c79906122cb565b80601f0160208091040260200160405190810160405280929190818152602001828054610ca5906122cb565b8015610cf25780601f10610cc757610100808354040283529160200191610cf2565b820191906000526020600020905b815481529060010190602001808311610cd557829003601f168201915b505050505081526020016001820160009054906101000a900473ffffffffffffffffffffffffffffffffffffffff1673ffffffffffffffffffffffffffffffffffffffff1673ffffffffffffffffffffffffffffffffffffffff16815260200160028201548152505081526020019060010190610c46565b505050509050919050565b60606000805480602002602001604051908101604052809291908181526020016000905b82821015610f6357838290600052602060002090600602016040518060c0016040529081600082018054610dcc906122cb565b80601f0160208091040260200160405190810160405280929190818152602001828054610df8906122cb565b8015610e455780601f10610e1a57610100808354040283529160200191610e45565b820191906000526020600020905b815481529060010190602001808311610e2857829003601f168201915b50505050508152602001600182018054610e5e906122cb565b80601f0160208091040260200160405190810160405280929190818152602001828054610e8a906122cb565b8015610ed75780601f10610eac57610100808354040283529160200191610ed7565b820191906000526020600020905b815481529060010190602001808311610eba57829003601f168201915b505050505081526020016002820160009054906101000a900473ffffffffffffffffffffffffffffffffffffffff1673ffffffffffffffffffffffffffffffffffffffff1673ffffffffffffffffffffffffffffffffffffffff168152602001600382015481526020016004820154815260200160058201548152505081526020019060010190610d99565b50505050905090565b6003602052806000526040600020600091509050806000018054610f8f906122cb565b80601f0160208091040260200160405190810160405280929190818152602001828054610fbb906122cb565b80156110085780601f10610fdd57610100808354040283529160200191611008565b820191906000526020600020905b815481529060010190602001808311610feb57829003601f168201915b5050505050908060010154905082565b6002602052816000526040600020818154811061103457600080fd5b906000526020600020906003020160009150915050806000018054611058906122cb565b80601f0160208091040260200160405190810160405280929190818152602001828054611084906122cb565b80156110d15780601f106110a6576101008083540402835291602001916110d1565b820191906000526020600020905b8154815290600101906020018083116110b457829003601f168201915b5050505050908060010160009054906101000a900473ffffffffffffffffffffffffffffffffffffffff16908060020154905083565b80600360003373ffffffffffffffffffffffffffffffffffffffff1673ffffffffffffffffffffffffffffffffffffffff1681526020019081526020016000206000019081611156919061249e565b503373ffffffffffffffffffffffffffffffffffffffff167f6b397bb88467b92a1774b4b19bf728f2673bf763d0bd7a571d17714ba7bd8c6c8260405161119d91906120a4565b60405180910390a250565b60055481565b60008054905082106111f5576040517f08c379a00000000000000000000000000000000000000000000000000000000081526004016111ec906129c9565b60405180910390fd5b600060405180606001604052808381526020013373ffffffffffffffffffffffffffffffffffffffff16815260200142815250905060026000848152602001908152602001600020819080600181540180825580915050600190039060005260206000209060030201600090919091909150600082015181600001908161127c919061249e565b5060208201518160010160006101000a81548173ffffffffffffffffffffffffffffffffffffffff021916908373ffffffffffffffffffffffffffffffffffffffff1602179055506040820151816002015550503373ffffffffffffffffffffffffffffffffffffffff167fa375f96520c2d96681c552e843779ed114ea0341e7cb3ad6eaf09b1ec6add75584844260405161131a939291906129e9565b60405180910390a2505050565b6060600360008373ffffffffffffffffffffffffffffffffffffffff1673ffffffffffffffffffffffffffffffffffffffff1681526020019081526020016000206000018054611376906122cb565b80601f01602080910402602001604051908101604052809291908181526020018280546113a2906122cb565b80156113ef5780601f106113c4576101008083540402835291602001916113ef565b820191906000526020600020905b8154815290600101906020018083116113d257829003601f168201915b50505050509050919050565b6000805490508110611442576040517f08c379a0000000000000000000000000000000000000000000000000000000008152600401611439906129c9565b60405180910390fd5b60016000828152602001908152602001600020339080600181540180825580915050600190039060005260206000200160009091909190916101000a81548173ffffffffffffffffffffffffffffffffffffffff021916908373ffffffffffffffffffffffffffffffffffffffff160217905550600081815481106114ca576114c9612a27565b5b906000526020600020906006020160040160008154809291906114ec90612a56565b91905055503373ffffffffffffffffffffffffffffffffffffffff167f221a800fd0fd31f901a0e51e6fd33129e512175031cc55f71a97e6f5b904ff5582604051611537919061202d565b60405180910390a250565b60065481565b6060600160008381526020019081526020016000208054806020026020016040519081016040528092919081815260200182805480156115dd57602002820191906000526020600020905b8160009054906101000a900473ffffffffffffffffffffffffffffffffffffffff1673ffffffffffffffffffffffffffffffffffffffff1681526020019060010190808311611593575b50505050509050919050565b6000600360008373ffffffffffffffffffffffffffffffffffffffff1673ffffffffffffffffffffffffffffffffffffffff168152602001908152602001600020600101549050919050565b600080549050831061167c576040517f08c379a0000000000000000000000000000000000000000000000000000000008152600401611673906129c9565b60405180910390fd5b60006040518060c001604052808481526020018381526020013373ffffffffffffffffffffffffffffffffffffffff168152602001428152602001600081526020016000815250905060008190806001815401808255809150506001900390600052602060002090600602016000909190919091506000820151816000019081611706919061249e565b50602082015181600101908161171c919061249e565b5060408201518160020160006101000a81548173ffffffffffffffffffffffffffffffffffffffff021916908373ffffffffffffffffffffffffffffffffffffffff160217905550606082015181600301556080820151816004015560a0820151816005015550506000848154811061179857611797612a27565b5b906000526020600020906006020160050160008154809291906117ba90612a56565b91905055503373ffffffffffffffffffffffffffffffffffffffff167feec563c101e26742449be85f4ce07bb1c4cbaad39922cf4152a9602d5ecafffc8585854260405161180b9493929190612a9e565b60405180910390a250505050565b600460009054906101000a900473ffffffffffffffffffffffffffffffffffffffff1681565b6000604051905090565b600080fd5b600080fd5b600080fd5b600080fd5b6000601f19601f8301169050919050565b7f4e487b7100000000000000000000000000000000000000000000000000000000600052604160045260246000fd5b6118a68261185d565b810181811067ffffffffffffffff821117156118c5576118c461186e565b5b80604052505050565b60006118d861183f565b90506118e4828261189d565b919050565b600067ffffffffffffffff8211156119045761190361186e565b5b61190d8261185d565b9050602081019050919050565b82818337600083830152505050565b600061193c611937846118e9565b6118ce565b90508281526020810184848401111561195857611957611858565b5b61196384828561191a565b509392505050565b600082601f8301126119805761197f611853565b5b8135611990848260208601611929565b91505092915050565b600080604083850312156119b0576119af611849565b5b600083013567ffffffffffffffff8111156119ce576119cd61184e565b5b6119da8582860161196b565b925050602083013567ffffffffffffffff8111156119fb576119fa61184e565b5b611a078582860161196b565b9150509250929050565b6000819050919050565b611a2481611a11565b8114611a2f57600080fd5b50565b600081359050611a4181611a1b565b92915050565b600060208284031215611a5d57611a5c611849565b5b6000611a6b84828501611a32565b91505092915050565b600081519050919050565b600082825260208201905092915050565b60005b83811015611aae578082015181840152602081019050611a93565b60008484015250505050565b6000611ac582611a74565b611acf8185611a7f565b9350611adf818560208601611a90565b611ae88161185d565b840191505092915050565b600073ffffffffffffffffffffffffffffffffffffffff82169050919050565b6000611b1e82611af3565b9050919050565b611b2e81611b13565b82525050565b611b3d81611a11565b82525050565b600060c0820190508181036000830152611b5d8189611aba565b90508181036020830152611b718188611aba565b9050611b806040830187611b25565b611b8d6060830186611b34565b611b9a6080830185611b34565b611ba760a0830184611b34565b979650505050505050565b60008060408385031215611bc957611bc8611849565b5b6000611bd785828601611a32565b9250506020611be885828601611a32565b9150509250929050565b6000602082019050611c076000830184611b25565b92915050565b600081519050919050565b600082825260208201905092915050565b6000819050602082019050919050565b600082825260208201905092915050565b6000611c5582611a74565b611c5f8185611c39565b9350611c6f818560208601611a90565b611c788161185d565b840191505092915050565b611c8c81611b13565b82525050565b611c9b81611a11565b82525050565b60006060830160008301518482036000860152611cbe8282611c4a565b9150506020830151611cd36020860182611c83565b506040830151611ce66040860182611c92565b508091505092915050565b6000611cfd8383611ca1565b905092915050565b6000602082019050919050565b6000611d1d82611c0d565b611d278185611c18565b935083602082028501611d3985611c29565b8060005b85811015611d755784840389528151611d568582611cf1565b9450611d6183611d05565b925060208a01995050600181019050611d3d565b50829750879550505050505092915050565b60006020820190508181036000830152611da18184611d12565b905092915050565b600081519050919050565b600082825260208201905092915050565b6000819050602082019050919050565b600060c0830160008301518482036000860152611df28282611c4a565b91505060208301518482036020860152611e0c8282611c4a565b9150506040830151611e216040860182611c83565b506060830151611e346060860182611c92565b506080830151611e476080860182611c92565b5060a0830151611e5a60a0860182611c92565b508091505092915050565b6000611e718383611dd5565b905092915050565b6000602082019050919050565b6000611e9182611da9565b611e9b8185611db4565b935083602082028501611ead85611dc5565b8060005b85811015611ee95784840389528151611eca8582611e65565b9450611ed583611e79565b925060208a01995050600181019050611eb1565b50829750879550505050505092915050565b60006020820190508181036000830152611f158184611e86565b905092915050565b611f2681611b13565b8114611f3157600080fd5b50565b600081359050611f4381611f1d565b92915050565b600060208284031215611f5f57611f5e611849565b5b6000611f6d84828501611f34565b91505092915050565b60006040820190508181036000830152611f908185611aba565b9050611f9f6020830184611b34565b9392505050565b60006060820190508181036000830152611fc08186611aba565b9050611fcf6020830185611b25565b611fdc6040830184611b34565b949350505050565b600060208284031215611ffa57611ff9611849565b5b600082013567ffffffffffffffff8111156120185761201761184e565b5b6120248482850161196b565b91505092915050565b60006020820190506120426000830184611b34565b92915050565b6000806040838503121561205f5761205e611849565b5b600061206d85828601611a32565b925050602083013567ffffffffffffffff81111561208e5761208d61184e565b5b61209a8582860161196b565b9150509250929050565b600060208201905081810360008301526120be8184611aba565b905092915050565b600081519050919050565b600082825260208201905092915050565b6000819050602082019050919050565b60006120fe8383611c83565b60208301905092915050565b6000602082019050919050565b6000612122826120c6565b61212c81856120d1565b9350612137836120e2565b8060005b8381101561216857815161214f88826120f2565b975061215a8361210a565b92505060018101905061213b565b5085935050505092915050565b6000602082019050818103600083015261218f8184612117565b905092915050565b6000806000606084860312156121b0576121af611849565b5b60006121be86828701611a32565b935050602084013567ffffffffffffffff8111156121df576121de61184e565b5b6121eb8682870161196b565b925050604084013567ffffffffffffffff81111561220c5761220b61184e565b5b6122188682870161196b565b9150509250925092565b6000819050919050565b600061224761224261223d84611af3565b612222565b611af3565b9050919050565b60006122598261222c565b9050919050565b600061226b8261224e565b9050919050565b61227b81612260565b82525050565b60006020820190506122966000830184612272565b92915050565b7f4e487b7100000000000000000000000000000000000000000000000000000000600052602260045260246000fd5b600060028204905060018216806122e357607f821691505b6020821081036122f6576122f561229c565b5b50919050565b60008190508160005260206000209050919050565b60006020601f8301049050919050565b600082821b905092915050565b60006008830261235e7fffffffffffffffffffffffffffffffffffffffffffffffffffffffffffffffff82612321565b6123688683612321565b95508019841693508086168417925050509392505050565b600061239b61239661239184611a11565b612222565b611a11565b9050919050565b6000819050919050565b6123b583612380565b6123c96123c1826123a2565b84845461232e565b825550505050565b600090565b6123de6123d1565b6123e98184846123ac565b505050565b5b8181101561240d576124026000826123d6565b6001810190506123ef565b5050565b601f82111561245257612423816122fc565b61242c84612311565b8101602085101561243b578190505b61244f61244785612311565b8301826123ee565b50505b505050565b600082821c905092915050565b600061247560001984600802612457565b1980831691505092915050565b600061248e8383612464565b9150826002028217905092915050565b6124a782611a74565b67ffffffffffffffff8111156124c0576124bf61186e565b5b6124ca82546122cb565b6124d5828285612411565b600060209050601f83116001811461250857600084156124f6578287015190505b6125008582612482565b865550612568565b601f198416612516866122fc565b60005b8281101561253e57848901518255600182019150602085019450602081019050612519565b8683101561255b5784890151612557601f891682612464565b8355505b6001600288020188555050505b505050505050565b60006040820190506125856000830185611b25565b6125926020830184611b34565b9392505050565b7f4e487b7100000000000000000000000000000000000000000000000000000000600052601160045260246000fd5b60006125d382611a11565b91506125de83611a11565b92508282019050808211156125f6576125f5612599565b5b92915050565b600060608201905081810360008301526126168186611aba565b9050818103602083015261262a8185611aba565b90506126396040830184611b34565b949350505050565b60008151905061265081611a1b565b92915050565b60006020828403121561266c5761266b611849565b5b600061267a84828501612641565b91505092915050565b7f496e73756666696369656e742062616c616e636520746f207370696e2074686560008201527f20776865656c0000000000000000000000000000000000000000000000000000602082015250565b60006126df602683611a7f565b91506126ea82612683565b604082019050919050565b6000602082019050818103600083015261270e816126d2565b9050919050565b600060408201905061272a6000830185611b25565b6127376020830184611b25565b9392505050565b7f417070726f766520746f6b656e7320746f207370696e2074686520776865656c600082015250565b6000612774602083611a7f565b915061277f8261273e565b602082019050919050565b600060208201905081810360008301526127a381612767565b9050919050565b60006060820190506127bf6000830186611b25565b6127cc6020830185611b25565b6127d96040830184611b34565b949350505050565b60008115159050919050565b6127f6816127e1565b811461280157600080fd5b50565b600081519050612813816127ed565b92915050565b60006020828403121561282f5761282e611849565b5b600061283d84828501612804565b91505092915050565b6000819050919050565b61286161285c82611a11565b612846565b82525050565b60008160601b9050919050565b600061287f82612867565b9050919050565b600061289182612874565b9050919050565b6128a96128a482611b13565b612886565b82525050565b60006128bb8285612850565b6020820191506128cb8284612898565b6014820191508190509392505050565b7f4e487b7100000000000000000000000000000000000000000000000000000000600052601260045260246000fd5b600061291582611a11565b915061292083611a11565b9250826129305761292f6128db565b5b828206905092915050565b600061294682611a11565b915061295183611a11565b925082820261295f81611a11565b9150828204841483151761297657612975612599565b5b5092915050565b7f496e76616c696420706f73742049440000000000000000000000000000000000600082015250565b60006129b3600f83611a7f565b91506129be8261297d565b602082019050919050565b600060208201905081810360008301526129e2816129a6565b9050919050565b60006060820190506129fe6000830186611b34565b8181036020830152612a108185611aba565b9050612a1f6040830184611b34565b949350505050565b7f4e487b7100000000000000000000000000000000000000000000000000000000600052603260045260246000fd5b6000612a6182611a11565b91507fffffffffffffffffffffffffffffffffffffffffffffffffffffffffffffffff8203612a9357612a92612599565b5b600182019050919050565b6000608082019050612ab36000830187611b34565b8181036020830152612ac58186611aba565b90508181036040830152612ad98185611aba565b9050612ae86060830184611b34565b9594505050505056fea2646970667358221220f5bc01ce1116a5095277a407a57e3b7ed9b4a0503e9b527906f2a9c1fe74639464736f6c63430008180033",
  "linkReferences": {},
  "deployedLinkReferences": {}
}